:100000000C9434000C9451000C9451000C94510049
:100010000C9451000C9451000C9451000C9451001C
:100020000C9451000C9451000C9451000C9451000C
:100030000C9451000C9451000C9451000C945100FC
:100040000C9451000C9451000C9451000C945100EC
:100050000C9451000C9451000C9451000C945100DC
:100060000C9451000C94510011241FBECFEFD8E026
:10007000DEBFCDBF11E0A0E0B1E0E0EEF5E002C0F0
:1000800005900D92A433B107D9F721E0A4E3B1E0C4
:1000900001C01D92A834B207E1F70E9410020C942F
:1000A000EE020C940000CF92DF92EF92FF928AE56D
:1000B0000E94C200811105C080E091E00E9404020C
:1000C00057C086E091E00E94040285EB0E94C200C6
:1000D0000E94F600E82EF12CFE2CEE24F0923D0159
:1000E000E0923C010E94F600E82AF0923D01E09285
:1000F0003C010E94F600E82EF12CFE2CEE24F0923A
:100100003B01E0923A010E94F600E82AF0923B019E
:10011000E0923A010E94F600C82ED12CE12CF12C7D
:10012000FE2CED2CDC2CCC24C0923601D092370171
:10013000E0923801F09239010E94F600C82AC0927C
:100140003601D0923701E0923801F09239010E94D5
:10015000F600E82EF12CFE2CEE24F0923501E09210
:1001600034010E940001E82AF0923501E092340146
:10017000FF90EF90DF90CF900C94DE0180E28093AF
:10018000B80008951092BC0094EA9093BC0090913E
:10019000BC0097FFFCCF9091B900987F983099F4FC
:1001A0008093BB0084E88093BC008091BC0087FFF3
:1001B000FCCF9091B900987F983119F081E090348C
:1001C00019F480E0089581E008958093BB0084E8ED
:1001D0008093BC008091BC0087FFFCCF9091B90058
:1001E000987F81E0983209F480E0089584EC809350
:1001F000BC008091BC0087FFFCCF8091BB000895BC
:1002000084E88093BC008091BC0087FFFCCF809184
:10021000BB000895EF92FF920F931F93CF93DF934C
:1002200000D0CDB7DEB78A0169837A830E94C2000D
:1002300069817A8181110DC07B010E0D1F1DE016B1
:10024000F10649F0F70181917F010E94E5008823C2
:10025000B1F381E004C084E98093BC0080E00F909A
:100260000F90DF91CF911F910F91FF90EF90089524
:10027000EF92FF920F931F93CF93DF93EB017A01DD
:1002800081600E94C20081111AC08E0181E0E81ACB
:10029000F108C8018C1B9D0B8E159F0530F40E9440
:1002A000F600F80181938F01F4CFCE0DDF1D0E947F
:1002B0000001888384E98093BC0080E001C081E074
:1002C000DF91CF911F910F91FF90EF900895CF9202
:1002D000DF92EF92FF920F931F93CF93DF931F92C2
:1002E000CDB7DEB77A01890169830E94C2006981B6
:1002F000882311F081E015C0862F0E94E500670178
:100300000E0D1F1DC016D10641F0F60181916F013F
:100310000E94E5008823B1F3EDCF84E98093BC000F
:1003200080E00F90DF91CF911F910F91FF90EF90A0
:10033000DF90CF900895CF92DF92EF92FF920F93CC
:100340001F93CF93DF931F92CDB7DEB7182F6A01AB
:10035000790169830E94C2006981882311F081E0DC
:1003600023C0862F0E94E500812F81600E94C20079
:100370008111F5CF860181E0E81AF108C8018C19D6
:100380009D098E159F0530F40E94F600F8018193B7
:100390008F01F4CFEC0CFD1C0E940001F70180835B
:1003A00084E98093BC0080E00F90DF91CF911F9192
:1003B0000F91FF90EF90DF90CF90089584E98093A4
:1003C000BC00089501979C0140E050E060E271EAB2
:1003D00087E090E00E947802832F99278093C500E0
:1003E0002093C400E1ECF0E0808188698083E2EC36
:1003F000F0E080818E60808308959091C00095FF29
:10040000FCCF8093C6000895CF93DF93EC018991D0
:10041000882319F00E94FD01FACFDF91CF91089552
:1004200080E091EE0E94E2010E94BE0080E284B969
:10043000CFEF0E9453004AE06EE371E080913C01EF
:1004400090913D010E94B9028EE391E00E94040266
:100450008DE091E00E9404024AE06EE371E0809139
:100460003A0190913B010E94B9028EE391E00E9413
:10047000040284E191E00E9404024AE06EE371E02C
:1004800080913601909137010E94B9028EE391E08C
:100490000E9404028DE191E00E9404024AE06EE3B2
:1004A00071E080913401909135010E94B9028EE390
:1004B00091E00E9404028AE291E00E94040281E33A
:1004C00091E00E940402C5B92FEF84E39CE0215023
:1004D00080409040E1F700C0000015B82FEF84E3A2
:1004E0009CE0215080409040E1F700C00000A1CF87
:1004F000052E97FB1EF400940E948F0257FD07D033
:100500000E94970207FC03D04EF40C948F02509582
:100510004095309521953F4F4F4F5F4F08959095EF
:100520008095709561957F4F8F4F9F4F0895A1E201
:100530001A2EAA1BBB1BFD010DC0AA1FBB1FEE1F5D
:10054000FF1FA217B307E407F50720F0A21BB30BA8
:10055000E40BF50B661F771F881F991F1A9469F724
:1005600060957095809590959B01AC01BD01CF0180
:100570000895BB274A3031F4992322F4BDE29095C7
:1005800081959F4F0C94C502BB27FB015527AA27D5
:10059000880F991FAA1FA41710F0A41B8395505110
:1005A000B9F7A05DAA3308F0A95DA193009779F788
:1005B000B111B1931192CB010C94DE02DC01FC016C
:1005C000672F71917723E1F7329704C07C916D9387
:1005D00070836291AE17BF07C8F30895F894FFCFF8
:1005E0004572726F7200537461727420003A7072B7
:1005F000656420003A73746174757320003A726503
:1006000073697374616E636520003A74766F63205A
:04061000000A0D00CF
:00000001FF
