:100000000C9434000C9451000C9451000C94510049
:100010000C9451000C9451000C9451000C9451001C
:100020000C9451000C9451000C9451000C9451000C
:100030000C9451000C9451000C9451000C945100FC
:100040000C9451000C9451000C9451000C945100EC
:100050000C9451000C9451000C9451000C945100DC
:100060000C9451000C94510011241FBECFEFD8E026
:10007000DEBFCDBF11E0A0E0B1E0EAEDF5E002C0E7
:1000800005900D92A433B107D9F721E0A4E3B1E0C4
:1000900001C01D92A834B207E1F70E940D020C9432
:1000A000EB020C940000CF92DF92EF92FF9285EB6F
:1000B0000E94BF00811155C080E091E00E940102C2
:1000C0000E94F300E82EF12CFE2CEE24F0923D016C
:1000D000E0923C010E94F300E82AF0923D01E09298
:1000E0003C010E94F300E82EF12CFE2CEE24F0924D
:1000F0003B01E0923A010E94F300E82AF0923B01B2
:10010000E0923A010E94F300C82ED12CE12CF12C90
:10011000FE2CED2CDC2CCC24C0923601D092370181
:10012000E0923801F09239010E94F300C82AC0928F
:100130003601D0923701E0923801F09239010E94E5
:10014000F300E82EF12CFE2CEE24F0923501E09223
:1001500034010E94FD00E82AF0923501E09234015A
:1001600004C087E091E00E940102FF90EF90DF90D1
:10017000CF900C94DB0180E28093B8000895109238
:10018000BC0094EA9093BC009091BC0097FFFCCF18
:100190009091B900987F983099F48093BB0084E8DF
:1001A0008093BC008091BC0087FFFCCF9091B90088
:1001B000987F983119F081E0903419F480E0089527
:1001C00081E008958093BB0084E88093BC00809117
:1001D000BC0087FFFCCF9091B900987F81E09832F6
:1001E00009F480E0089584EC8093BC008091BC0009
:1001F00087FFFCCF8091BB00089584E88093BC000A
:100200008091BC0087FFFCCF8091BB000895EF92E6
:10021000FF920F931F93CF93DF9300D0CDB7DEB73C
:100220008A0169837A830E94BF0069817A81811182
:100230000DC07B010E0D1F1DE016F10649F0F70100
:1002400081917F010E94E2008823B1F381E004C024
:1002500084E98093BC0080E00F900F90DF91CF91F4
:100260001F910F91FF90EF900895EF92FF920F93DF
:100270001F93CF93DF93EB017A0181600E94BF004F
:1002800081111AC08E0181E0E81AF108C8018C1BA7
:100290009D0B8E159F0530F40E94F300F8018193A9
:1002A0008F01F4CFCE0DDF1D0E94FD00888384E90D
:1002B0008093BC0080E001C081E0DF91CF911F916D
:1002C0000F91FF90EF900895CF92DF92EF92FF92FF
:1002D0000F931F93CF93DF931F92CDB7DEB77A01B1
:1002E000890169830E94BF006981882311F081E040
:1002F00015C0862F0E94E20067010E0D1F1DC0165B
:10030000D10641F0F60181916F010E94E20088233D
:10031000B1F3EDCF84E98093BC0080E00F90DF91D2
:10032000CF911F910F91FF90EF90DF90CF900895A4
:10033000CF92DF92EF92FF920F931F93CF93DF93B1
:100340001F92CDB7DEB7182F6A01790169830E9429
:10035000BF006981882311F081E023C0862F0E94AD
:10036000E200812F81600E94BF008111F5CF8601DC
:1003700081E0E81AF108C8018C199D098E159F05C6
:1003800030F40E94F300F80181938F01F4CFEC0C5C
:10039000FD1C0E94FD00F701808384E98093BC006E
:1003A00080E00F90DF91CF911F910F91FF90EF9020
:1003B000DF90CF90089584E98093BC000895019761
:1003C0009C0140E050E060E271EA87E090E00E942A
:1003D0007502832F99278093C5002093C400E1EC18
:1003E000F0E0808188698083E2ECF0E080818E60BB
:1003F000808308959091C00095FFFCCF8093C60044
:100400000895CF93DF93EC018991882319F00E941E
:10041000FA01FACFDF91CF91089580E091EE0E942A
:10042000DF010E94BB0080E284B9CFEF0E9453003D
:100430004AE06EE371E080913C0190913D010E94A1
:10044000B6028EE391E00E9401028DE091E00E94ED
:1004500001024AE06EE371E080913A0190913B0124
:100460000E94B6028EE391E00E94010284E191E0D5
:100470000E9401024AE06EE371E0809136019091A2
:1004800037010E94B6028EE391E00E9401028DE1E5
:1004900091E00E9401024AE06EE371E08091340134
:1004A000909135010E94B6028EE391E00E94010214
:1004B0008AE291E00E94010281E391E00E94010240
:1004C000C5B92FEF84E39CE0215080409040E1F7D4
:1004D00000C0000015B82FEF84E39CE0215080405D
:1004E0009040E1F700C00000A1CF052E97FB1EF45D
:1004F00000940E948C0257FD07D00E94940207FCD2
:1005000003D04EF40C948C02509540953095219573
:100510003F4F4F4F5F4F089590958095709561952F
:100520007F4F8F4F9F4F0895A1E21A2EAA1BBB1B2E
:10053000FD010DC0AA1FBB1FEE1FFF1FA217B307AF
:10054000E407F50720F0A21BB30BE40BF50B661FC5
:10055000771F881F991F1A9469F760957095809589
:1005600090959B01AC01BD01CF010895BB274A3096
:1005700031F4992322F4BDE2909581959F4F0C941C
:10058000C202BB27FB015527AA27880F991FAA1F64
:10059000A41710F0A41B83955051B9F7A05DAA339E
:1005A00008F0A95DA193009779F7B111B193119269
:1005B000CB010C94DB02DC01FC01672F71917723E6
:1005C000E1F7329704C07C916D9370836291AE170E
:0A05D000BF07C8F30895F894FFCFA9
:1005DA00537461727420004572726F72003A7072BD
:1005EA00656420003A73746174757320003A726509
:1005FA0073697374616E636520003A74766F632061
:04060A00000A0D00D5
:00000001FF
